{
  "_format": "hh-sol-artifact-1",
  "contractName": "NFTMarket",
  "sourceName": "contracts/NFTMarket.sol",
  "abi": [
    {
      "inputs": [],
      "stateMutability": "nonpayable",
      "type": "constructor"
    },
    {
      "anonymous": false,
      "inputs": [
        {
          "indexed": true,
          "internalType": "uint256",
          "name": "itemId",
          "type": "uint256"
        },
        {
          "indexed": true,
          "internalType": "address",
          "name": "nftContract",
          "type": "address"
        },
        {
          "indexed": true,
          "internalType": "uint256",
          "name": "tokenId",
          "type": "uint256"
        },
        {
          "indexed": false,
          "internalType": "address",
          "name": "createdBy",
          "type": "address"
        },
        {
          "indexed": false,
          "internalType": "address",
          "name": "owner",
          "type": "address"
        },
        {
          "indexed": false,
          "internalType": "uint256",
          "name": "price",
          "type": "uint256"
        },
        {
          "indexed": false,
          "internalType": "uint256",
          "name": "comission",
          "type": "uint256"
        },
        {
          "indexed": false,
          "internalType": "bool",
          "name": "forSale",
          "type": "bool"
        }
      ],
      "name": "MarketItemCreated",
      "type": "event"
    },
    {
      "anonymous": false,
      "inputs": [
        {
          "indexed": true,
          "internalType": "uint256",
          "name": "itemId",
          "type": "uint256"
        },
        {
          "indexed": true,
          "internalType": "address",
          "name": "nftContract",
          "type": "address"
        },
        {
          "indexed": true,
          "internalType": "uint256",
          "name": "tokenId",
          "type": "uint256"
        },
        {
          "indexed": false,
          "internalType": "address",
          "name": "createdBy",
          "type": "address"
        },
        {
          "indexed": false,
          "internalType": "address",
          "name": "seller",
          "type": "address"
        },
        {
          "indexed": false,
          "internalType": "address",
          "name": "owner",
          "type": "address"
        },
        {
          "indexed": false,
          "internalType": "uint256",
          "name": "price",
          "type": "uint256"
        },
        {
          "indexed": false,
          "internalType": "uint256",
          "name": "comission",
          "type": "uint256"
        }
      ],
      "name": "MarketItemSold",
      "type": "event"
    },
    {
      "inputs": [
        {
          "internalType": "address",
          "name": "nftContract",
          "type": "address"
        },
        {
          "internalType": "uint256",
          "name": "tokenId",
          "type": "uint256"
        },
        {
          "internalType": "uint256",
          "name": "price",
          "type": "uint256"
        },
        {
          "internalType": "bool",
          "name": "forSale",
          "type": "bool"
        }
      ],
      "name": "createMarketItem",
      "outputs": [],
      "stateMutability": "payable",
      "type": "function"
    },
    {
      "inputs": [
        {
          "internalType": "address",
          "name": "nftContract",
          "type": "address"
        },
        {
          "internalType": "uint256",
          "name": "itemId",
          "type": "uint256"
        }
      ],
      "name": "createMarketSale",
      "outputs": [],
      "stateMutability": "payable",
      "type": "function"
    },
    {
      "inputs": [],
      "name": "fecthItemsCreated",
      "outputs": [
        {
          "components": [
            {
              "internalType": "uint256",
              "name": "itemId",
              "type": "uint256"
            },
            {
              "internalType": "address",
              "name": "nftContract",
              "type": "address"
            },
            {
              "internalType": "uint256",
              "name": "tokenId",
              "type": "uint256"
            },
            {
              "internalType": "address payable",
              "name": "createdBy",
              "type": "address"
            },
            {
              "internalType": "address payable",
              "name": "owner",
              "type": "address"
            },
            {
              "internalType": "uint256",
              "name": "price",
              "type": "uint256"
            },
            {
              "internalType": "uint256",
              "name": "comission",
              "type": "uint256"
            },
            {
              "internalType": "bool",
              "name": "forSale",
              "type": "bool"
            }
          ],
          "internalType": "struct NFTMarket.MarketItem[]",
          "name": "",
          "type": "tuple[]"
        }
      ],
      "stateMutability": "view",
      "type": "function"
    },
    {
      "inputs": [],
      "name": "fetchMarketItems",
      "outputs": [
        {
          "components": [
            {
              "internalType": "uint256",
              "name": "itemId",
              "type": "uint256"
            },
            {
              "internalType": "address",
              "name": "nftContract",
              "type": "address"
            },
            {
              "internalType": "uint256",
              "name": "tokenId",
              "type": "uint256"
            },
            {
              "internalType": "address payable",
              "name": "createdBy",
              "type": "address"
            },
            {
              "internalType": "address payable",
              "name": "owner",
              "type": "address"
            },
            {
              "internalType": "uint256",
              "name": "price",
              "type": "uint256"
            },
            {
              "internalType": "uint256",
              "name": "comission",
              "type": "uint256"
            },
            {
              "internalType": "bool",
              "name": "forSale",
              "type": "bool"
            }
          ],
          "internalType": "struct NFTMarket.MarketItem[]",
          "name": "",
          "type": "tuple[]"
        }
      ],
      "stateMutability": "view",
      "type": "function"
    },
    {
      "inputs": [
        {
          "internalType": "uint256",
          "name": "itemId",
          "type": "uint256"
        }
      ],
      "name": "getItemById",
      "outputs": [
        {
          "components": [
            {
              "internalType": "uint256",
              "name": "itemId",
              "type": "uint256"
            },
            {
              "internalType": "address",
              "name": "nftContract",
              "type": "address"
            },
            {
              "internalType": "uint256",
              "name": "tokenId",
              "type": "uint256"
            },
            {
              "internalType": "address payable",
              "name": "createdBy",
              "type": "address"
            },
            {
              "internalType": "address payable",
              "name": "owner",
              "type": "address"
            },
            {
              "internalType": "uint256",
              "name": "price",
              "type": "uint256"
            },
            {
              "internalType": "uint256",
              "name": "comission",
              "type": "uint256"
            },
            {
              "internalType": "bool",
              "name": "forSale",
              "type": "bool"
            }
          ],
          "internalType": "struct NFTMarket.MarketItem",
          "name": "",
          "type": "tuple"
        }
      ],
      "stateMutability": "view",
      "type": "function"
    },
    {
      "inputs": [],
      "name": "getListingPrice",
      "outputs": [
        {
          "internalType": "uint256",
          "name": "",
          "type": "uint256"
        }
      ],
      "stateMutability": "view",
      "type": "function"
    },
    {
      "inputs": [],
      "name": "getPerCentComission",
      "outputs": [
        {
          "internalType": "uint256",
          "name": "",
          "type": "uint256"
        }
      ],
      "stateMutability": "view",
      "type": "function"
    },
    {
      "inputs": [],
      "name": "myNFTs",
      "outputs": [
        {
          "components": [
            {
              "internalType": "uint256",
              "name": "itemId",
              "type": "uint256"
            },
            {
              "internalType": "address",
              "name": "nftContract",
              "type": "address"
            },
            {
              "internalType": "uint256",
              "name": "tokenId",
              "type": "uint256"
            },
            {
              "internalType": "address payable",
              "name": "createdBy",
              "type": "address"
            },
            {
              "internalType": "address payable",
              "name": "owner",
              "type": "address"
            },
            {
              "internalType": "uint256",
              "name": "price",
              "type": "uint256"
            },
            {
              "internalType": "uint256",
              "name": "comission",
              "type": "uint256"
            },
            {
              "internalType": "bool",
              "name": "forSale",
              "type": "bool"
            }
          ],
          "internalType": "struct NFTMarket.MarketItem[]",
          "name": "",
          "type": "tuple[]"
        }
      ],
      "stateMutability": "view",
      "type": "function"
    },
    {
      "inputs": [
        {
          "internalType": "uint256",
          "name": "_price",
          "type": "uint256"
        }
      ],
      "name": "setListingPrice",
      "outputs": [],
      "stateMutability": "nonpayable",
      "type": "function"
    },
    {
      "inputs": [
        {
          "internalType": "uint256",
          "name": "_perCent",
          "type": "uint256"
        }
      ],
      "name": "setPerCentComission",
      "outputs": [],
      "stateMutability": "nonpayable",
      "type": "function"
    }
  ],
  "bytecode": "0x60806040526516bcc41e9000600455600460055534801561001f57600080fd5b50600160008190555033600360006101000a81548173ffffffffffffffffffffffffffffffffffffffff021916908373ffffffffffffffffffffffffffffffffffffffff160217905550611fbb806100786000396000f3fe6080604052600436106100915760003560e01c80637c726b69116100595780637c726b691461016b578063c23b139e14610194578063cd2f0710146101b0578063e0478298146101ed578063e814ce781461021857610091565b80630f08efe01461009657806312e85585146100c1578063235c2779146100ec5780635537244014610115578063630e153514610140575b600080fd5b3480156100a257600080fd5b506100ab610234565b6040516100b89190611a98565b60405180910390f35b3480156100cd57600080fd5b506100d66104e6565b6040516100e39190611b76565b60405180910390f35b3480156100f857600080fd5b50610113600480360381019061010e91906116b0565b6104f0565b005b34801561012157600080fd5b5061012a61058a565b6040516101379190611a98565b60405180910390f35b34801561014c57600080fd5b50610155610901565b6040516101629190611b76565b60405180910390f35b34801561017757600080fd5b50610192600480360381019061018d91906116b0565b61090b565b005b6101ae60048036038101906101a99190611611565b6109a5565b005b3480156101bc57600080fd5b506101d760048036038101906101d291906116b0565b610d17565b6040516101e49190611b5a565b60405180910390f35b3480156101f957600080fd5b50610202610e8a565b60405161020f9190611a98565b60405180910390f35b610232600480360381019061022d919061164d565b611201565b005b606060006102426001611525565b905060006102506002611525565b8261025b9190611cbc565b905060008167ffffffffffffffff81111561029f577f4e487b7100000000000000000000000000000000000000000000000000000000600052604160045260246000fd5b6040519080825280602002602001820160405280156102d857816020015b6102c5611549565b8152602001906001900390816102bd5790505b509050600080600190505b8481116104db576006600082815260200190815260200160002060070160009054906101000a900460ff16156104c8576006600082815260200190815260200160002060405180610100016040529081600082015481526020016001820160009054906101000a900473ffffffffffffffffffffffffffffffffffffffff1673ffffffffffffffffffffffffffffffffffffffff1673ffffffffffffffffffffffffffffffffffffffff168152602001600282015481526020016003820160009054906101000a900473ffffffffffffffffffffffffffffffffffffffff1673ffffffffffffffffffffffffffffffffffffffff1673ffffffffffffffffffffffffffffffffffffffff1681526020016004820160009054906101000a900473ffffffffffffffffffffffffffffffffffffffff1673ffffffffffffffffffffffffffffffffffffffff1673ffffffffffffffffffffffffffffffffffffffff16815260200160058201548152602001600682015481526020016007820160009054906101000a900460ff16151515158152505083838061048390611d80565b9450815181106104bc577f4e487b7100000000000000000000000000000000000000000000000000000000600052603260045260246000fd5b60200260200101819052505b80806104d390611d80565b9150506102e3565b508194505050505090565b6000600454905090565b600360009054906101000a900473ffffffffffffffffffffffffffffffffffffffff1673ffffffffffffffffffffffffffffffffffffffff163373ffffffffffffffffffffffffffffffffffffffff1614610580576040517f08c379a000000000000000000000000000000000000000000000000000000000815260040161057790611aba565b60405180910390fd5b8060058190555050565b606060006105986001611525565b90506000806000600190505b838111610637573373ffffffffffffffffffffffffffffffffffffffff166006600083815260200190815260200160002060030160009054906101000a900473ffffffffffffffffffffffffffffffffffffffff1673ffffffffffffffffffffffffffffffffffffffff16141561062457828061062090611d80565b9350505b808061062f90611d80565b9150506105a4565b5060008267ffffffffffffffff81111561067a577f4e487b7100000000000000000000000000000000000000000000000000000000600052604160045260246000fd5b6040519080825280602002602001820160405280156106b357816020015b6106a0611549565b8152602001906001900390816106985790505b5090506000600190505b8481116108f6573373ffffffffffffffffffffffffffffffffffffffff166006600083815260200190815260200160002060030160009054906101000a900473ffffffffffffffffffffffffffffffffffffffff1673ffffffffffffffffffffffffffffffffffffffff1614156108e3576006600082815260200190815260200160002060405180610100016040529081600082015481526020016001820160009054906101000a900473ffffffffffffffffffffffffffffffffffffffff1673ffffffffffffffffffffffffffffffffffffffff1673ffffffffffffffffffffffffffffffffffffffff168152602001600282015481526020016003820160009054906101000a900473ffffffffffffffffffffffffffffffffffffffff1673ffffffffffffffffffffffffffffffffffffffff1673ffffffffffffffffffffffffffffffffffffffff1681526020016004820160009054906101000a900473ffffffffffffffffffffffffffffffffffffffff1673ffffffffffffffffffffffffffffffffffffffff1673ffffffffffffffffffffffffffffffffffffffff16815260200160058201548152602001600682015481526020016007820160009054906101000a900460ff16151515158152505082848061089e90611d80565b9550815181106108d7577f4e487b7100000000000000000000000000000000000000000000000000000000600052603260045260246000fd5b60200260200101819052505b80806108ee90611d80565b9150506106bd565b508094505050505090565b6000600554905090565b600360009054906101000a900473ffffffffffffffffffffffffffffffffffffffff1673ffffffffffffffffffffffffffffffffffffffff163373ffffffffffffffffffffffffffffffffffffffff161461099b576040517f08c379a000000000000000000000000000000000000000000000000000000000815260040161099290611aba565b60405180910390fd5b8060048190555050565b600260005414156109eb576040517f08c379a00000000000000000000000000000000000000000000000000000000081526004016109e290611b1a565b60405180910390fd5b60026000819055506000600660008381526020019081526020016000206005015490506000600660008481526020019081526020016000206002015490506000600660008581526020019081526020016000206006015490508083610a509190611bdb565b3414610a91576040517f08c379a0000000000000000000000000000000000000000000000000000000008152600401610a8890611ada565b60405180910390fd5b60006006600086815260200190815260200160002060040160009054906101000a900473ffffffffffffffffffffffffffffffffffffffff1690508073ffffffffffffffffffffffffffffffffffffffff166108fc859081150290604051600060405180830381858888f19350505050158015610b12573d6000803e3d6000fd5b508573ffffffffffffffffffffffffffffffffffffffff166323b872dd8233866040518463ffffffff1660e01b8152600401610b5093929190611a0e565b600060405180830381600087803b158015610b6a57600080fd5b505af1158015610b7e573d6000803e3d6000fd5b50505050336006600087815260200190815260200160002060040160006101000a81548173ffffffffffffffffffffffffffffffffffffffff021916908373ffffffffffffffffffffffffffffffffffffffff160217905550610be16002611533565b60006006600087815260200190815260200160002060070160006101000a81548160ff021916908315150217905550600360009054906101000a900473ffffffffffffffffffffffffffffffffffffffff1673ffffffffffffffffffffffffffffffffffffffff166108fc839081150290604051600060405180830381858888f19350505050158015610c78573d6000803e3d6000fd5b50828673ffffffffffffffffffffffffffffffffffffffff16867f229adc2fb8086e942caefaa12e59cb2a9b22420fc832e0a19a378e9bd89af88d600660008a815260200190815260200160002060030160009054906101000a900473ffffffffffffffffffffffffffffffffffffffff1685338a89604051610cff9594939291906119bb565b60405180910390a45050505060016000819055505050565b610d1f611549565b6006600083815260200190815260200160002060405180610100016040529081600082015481526020016001820160009054906101000a900473ffffffffffffffffffffffffffffffffffffffff1673ffffffffffffffffffffffffffffffffffffffff1673ffffffffffffffffffffffffffffffffffffffff168152602001600282015481526020016003820160009054906101000a900473ffffffffffffffffffffffffffffffffffffffff1673ffffffffffffffffffffffffffffffffffffffff1673ffffffffffffffffffffffffffffffffffffffff1681526020016004820160009054906101000a900473ffffffffffffffffffffffffffffffffffffffff1673ffffffffffffffffffffffffffffffffffffffff1673ffffffffffffffffffffffffffffffffffffffff16815260200160058201548152602001600682015481526020016007820160009054906101000a900460ff1615151515815250509050919050565b60606000610e986001611525565b90506000806000600190505b838111610f37573373ffffffffffffffffffffffffffffffffffffffff166006600083815260200190815260200160002060040160009054906101000a900473ffffffffffffffffffffffffffffffffffffffff1673ffffffffffffffffffffffffffffffffffffffff161415610f24578280610f2090611d80565b9350505b8080610f2f90611d80565b915050610ea4565b5060008267ffffffffffffffff811115610f7a577f4e487b7100000000000000000000000000000000000000000000000000000000600052604160045260246000fd5b604051908082528060200260200182016040528015610fb357816020015b610fa0611549565b815260200190600190039081610f985790505b5090506000600190505b8481116111f6573373ffffffffffffffffffffffffffffffffffffffff166006600083815260200190815260200160002060040160009054906101000a900473ffffffffffffffffffffffffffffffffffffffff1673ffffffffffffffffffffffffffffffffffffffff1614156111e3576006600082815260200190815260200160002060405180610100016040529081600082015481526020016001820160009054906101000a900473ffffffffffffffffffffffffffffffffffffffff1673ffffffffffffffffffffffffffffffffffffffff1673ffffffffffffffffffffffffffffffffffffffff168152602001600282015481526020016003820160009054906101000a900473ffffffffffffffffffffffffffffffffffffffff1673ffffffffffffffffffffffffffffffffffffffff1673ffffffffffffffffffffffffffffffffffffffff1681526020016004820160009054906101000a900473ffffffffffffffffffffffffffffffffffffffff1673ffffffffffffffffffffffffffffffffffffffff1673ffffffffffffffffffffffffffffffffffffffff16815260200160058201548152602001600682015481526020016007820160009054906101000a900460ff16151515158152505082848061119e90611d80565b9550815181106111d7577f4e487b7100000000000000000000000000000000000000000000000000000000600052603260045260246000fd5b60200260200101819052505b80806111ee90611d80565b915050610fbd565b508094505050505090565b60026000541415611247576040517f08c379a000000000000000000000000000000000000000000000000000000000815260040161123e90611b1a565b60405180910390fd5b600260008190555060008211611292576040517f08c379a000000000000000000000000000000000000000000000000000000000815260040161128990611b3a565b60405180910390fd5b60045434146112d6576040517f08c379a00000000000000000000000000000000000000000000000000000000081526004016112cd90611afa565b60405180910390fd5b6112e06001611533565b60006112ec6001611525565b905060006064600554856113009190611c62565b61130a9190611c31565b90506040518061010001604052808381526020018773ffffffffffffffffffffffffffffffffffffffff1681526020018681526020013373ffffffffffffffffffffffffffffffffffffffff1681526020013373ffffffffffffffffffffffffffffffffffffffff168152602001858152602001828152602001841515815250600660008481526020019081526020016000206000820151816000015560208201518160010160006101000a81548173ffffffffffffffffffffffffffffffffffffffff021916908373ffffffffffffffffffffffffffffffffffffffff1602179055506040820151816002015560608201518160030160006101000a81548173ffffffffffffffffffffffffffffffffffffffff021916908373ffffffffffffffffffffffffffffffffffffffff16021790555060808201518160040160006101000a81548173ffffffffffffffffffffffffffffffffffffffff021916908373ffffffffffffffffffffffffffffffffffffffff16021790555060a0820151816005015560c0820151816006015560e08201518160070160006101000a81548160ff021916908315150217905550905050848673ffffffffffffffffffffffffffffffffffffffff16837fd0bb1eaea8ab6cd0c288f209757734c5e280d8f4e05f93b1db82da8db7278758333389878a60405161150d959493929190611a45565b60405180910390a45050600160008190555050505050565b600081600001549050919050565b6001816000016000828254019250508190555050565b60405180610100016040528060008152602001600073ffffffffffffffffffffffffffffffffffffffff16815260200160008152602001600073ffffffffffffffffffffffffffffffffffffffff168152602001600073ffffffffffffffffffffffffffffffffffffffff16815260200160008152602001600081526020016000151581525090565b6000813590506115e181611f40565b92915050565b6000813590506115f681611f57565b92915050565b60008135905061160b81611f6e565b92915050565b6000806040838503121561162457600080fd5b6000611632858286016115d2565b9250506020611643858286016115fc565b9150509250929050565b6000806000806080858703121561166357600080fd5b6000611671878288016115d2565b9450506020611682878288016115fc565b9350506040611693878288016115fc565b92505060606116a4878288016115e7565b91505092959194509250565b6000602082840312156116c257600080fd5b60006116d0848285016115fc565b91505092915050565b60006116e58383611859565b6101008301905092915050565b6116fb81611d4a565b82525050565b61170a81611d02565b82525050565b61171981611cf0565b82525050565b61172881611cf0565b82525050565b600061173982611ba1565b6117438185611bb9565b935061174e83611b91565b8060005b8381101561177f57815161176688826116d9565b975061177183611bac565b925050600181019050611752565b5085935050505092915050565b61179581611d14565b82525050565b6117a481611d14565b82525050565b60006117b7601883611bca565b91506117c282611e27565b602082019050919050565b60006117da602d83611bca565b91506117e582611e50565b604082019050919050565b60006117fd602383611bca565b915061180882611e9f565b604082019050919050565b6000611820601f83611bca565b915061182b82611eee565b602082019050919050565b6000611843601c83611bca565b915061184e82611f17565b602082019050919050565b61010082016000820151611870600085018261199d565b5060208201516118836020850182611710565b506040820151611896604085018261199d565b5060608201516118a96060850182611701565b5060808201516118bc6080850182611701565b5060a08201516118cf60a085018261199d565b5060c08201516118e260c085018261199d565b5060e08201516118f560e085018261178c565b50505050565b61010082016000820151611912600085018261199d565b5060208201516119256020850182611710565b506040820151611938604085018261199d565b50606082015161194b6060850182611701565b50608082015161195e6080850182611701565b5060a082015161197160a085018261199d565b5060c082015161198460c085018261199d565b5060e082015161199760e085018261178c565b50505050565b6119a681611d40565b82525050565b6119b581611d40565b82525050565b600060a0820190506119d060008301886116f2565b6119dd60208301876116f2565b6119ea604083018661171f565b6119f760608301856119ac565b611a0460808301846119ac565b9695505050505050565b6000606082019050611a2360008301866116f2565b611a30602083018561171f565b611a3d60408301846119ac565b949350505050565b600060a082019050611a5a600083018861171f565b611a67602083018761171f565b611a7460408301866119ac565b611a8160608301856119ac565b611a8e608083018461179b565b9695505050505050565b60006020820190508181036000830152611ab2818461172e565b905092915050565b60006020820190508181036000830152611ad3816117aa565b9050919050565b60006020820190508181036000830152611af3816117cd565b9050919050565b60006020820190508181036000830152611b13816117f0565b9050919050565b60006020820190508181036000830152611b3381611813565b9050919050565b60006020820190508181036000830152611b5381611836565b9050919050565b600061010082019050611b7060008301846118fb565b92915050565b6000602082019050611b8b60008301846119ac565b92915050565b6000819050602082019050919050565b600081519050919050565b6000602082019050919050565b600082825260208201905092915050565b600082825260208201905092915050565b6000611be682611d40565b9150611bf183611d40565b9250827fffffffffffffffffffffffffffffffffffffffffffffffffffffffffffffffff03821115611c2657611c25611dc9565b5b828201905092915050565b6000611c3c82611d40565b9150611c4783611d40565b925082611c5757611c56611df8565b5b828204905092915050565b6000611c6d82611d40565b9150611c7883611d40565b9250817fffffffffffffffffffffffffffffffffffffffffffffffffffffffffffffffff0483118215151615611cb157611cb0611dc9565b5b828202905092915050565b6000611cc782611d40565b9150611cd283611d40565b925082821015611ce557611ce4611dc9565b5b828203905092915050565b6000611cfb82611d20565b9050919050565b6000611d0d82611d20565b9050919050565b60008115159050919050565b600073ffffffffffffffffffffffffffffffffffffffff82169050919050565b6000819050919050565b6000611d5582611d5c565b9050919050565b6000611d6782611d6e565b9050919050565b6000611d7982611d20565b9050919050565b6000611d8b82611d40565b91507fffffffffffffffffffffffffffffffffffffffffffffffffffffffffffffffff821415611dbe57611dbd611dc9565b5b600182019050919050565b7f4e487b7100000000000000000000000000000000000000000000000000000000600052601160045260246000fd5b7f4e487b7100000000000000000000000000000000000000000000000000000000600052601260045260246000fd5b7f596f75206e65656420746f20626520746865206f776e65720000000000000000600082015250565b7f506c65617365207375626d69742074686520636f72726563742070726963652060008201527f746f20746865206d61726b657400000000000000000000000000000000000000602082015250565b7f5072696365206d75737420626520657175616c20746f206c697374696e67507260008201527f6963650000000000000000000000000000000000000000000000000000000000602082015250565b7f5265656e7472616e637947756172643a207265656e7472616e742063616c6c00600082015250565b7f5072696365206d7573742062652067726561746572207468616e203000000000600082015250565b611f4981611cf0565b8114611f5457600080fd5b50565b611f6081611d14565b8114611f6b57600080fd5b50565b611f7781611d40565b8114611f8257600080fd5b5056fea2646970667358221220dcea473b0437c72c2e20434b4410eb3ea7c3561f4e49cc4ca946c2c8123df3e164736f6c63430008040033",
  "linkReferences": {},
  "deployedLinkReferences": {}
}